:100000000C94FE000C9426010C9426010C942601FD
:100010000C9426010C9426010C9426010C942601C4
:100020000C9426010C9426010C945C010C94CE01D6
:100030000C9426010C9426010C9426010C942601A4
:100040000C9426010C9426010C9426010C94260194
:100050000C9426010C9426010C9426010C94290B77
:100060000C9426010C9426010C9426010C94260174
:100070000C9426010C9426010C9426010C94260164
:100080000C9426010C9426010C9426010C94260154
:100090000C9426010C9426010C9426010C94260144
:1000A0000C9426010C9426010C9426011C091F09AE
:1000B0000E091209180940094009400923092709B6
:1000C0002B093109350940093B09080B00020202DE
:1000D00001000904000001020200000524001001D3
:1000E0000524010101042402060524060001070578
:1000F000810310004009040100020A000000070506
:1001000002024000000705830240000004030904C6
:1001100012010002EF02014041233680000101027A
:10012000030141726475696E6F204C4C430041724B
:100130006475696E6F204C656F6E6172646F00004C
:100140000000002300260029002C002F00536361CB
:100150006E205049434320746F20736565205549D4
:10016000442C2053414B2C20747970652C20616EF7
:1001700064206461746120626C6F636B732E2E2E39
:100180000000000000240027002A002D003000009D
:10019000000000250028002B002E0031000404047C
:1001A000040403040502020202040302020202061E
:1001B00006060606060404020202040404080201FC
:1001C00010408040102040804080080204018040A0
:1001D000201002011080102040402000000002008A
:1001E000090F0000030401000C00000000000000E3
:1001F00000000000000000000000280E11241FBEB7
:10020000CFEFDAE0DEBFCDBF11E0A0E0B1E0ECEE71
:10021000FCE102C005900D92AA37B107D9F721E0A1
:10022000AAE7B1E001C01D92AB3FB207E1F710E0D1
:10023000CEEFD0E004C02197FE010E94690ECD3FB1
:10024000D107C9F70E94E10B0C94740E0C940000C6
:100250000E946F0E0F931F93CF93DF931F92CDB722
:10026000DEB782E0898342E450E06AEC70E080E827
:100270000E947F050E94F008DC0112960D911C91EE
:1002800013970115110589F0D801ED91FC910280B9
:10029000F381E02DBE016F5F7F4FC801099597FD87
:1002A00004C0F80100851185ECCF89810F90DF91A2
:1002B000CF911F910F9108951F920F920FB60F9239
:1002C00011248F939F938091E1009091E100937F9F
:1002D0009093E10083FF0FC01092E90091E09093AA
:1002E000EB001092EC0092E39093ED0010928501E8
:1002F00098E09093F00082FF20C093E09093E90093
:100300009091F200992319F09AE39093E80090916C
:100310007E01992339F090917E01915090937E0156
:10032000992389F190918401992339F09091840166
:10033000915090938401992341F184FF10C08091E2
:10034000E2008E7E81608093E2008091E1008F7EEA
:100350008093E10080917F018E7E806111C080FFDB
:1003600016C08091E2008E7E80618093E2008091D1
:10037000E1008E7E8093E10080917F018E7E81601E
:1003800080937F0104C05D9ACDCF289AD6CF9F91EC
:100390008F910F900FBE0F901F9018951F920F9284
:1003A0000FB60F921124CF92DF92EF92FF920F932C
:1003B0001F932F933F934F935F936F937F938F93ED
:1003C0009F93AF93BF93EF93FF93CF93DF93CDB7FB
:1003D000DEB76C97DEBFCDBF1092E9008091E800D8
:1003E00083FFFBC168E0CE0145960E94A60582EF1F
:1003F0008093E8008D8987FF05C09091E80090FF09
:10040000FCCF03C09EEF9093E800982F907609F000
:10041000C6C09E894F89588D2F89F88C91110CC0C8
:10042000803829F4809181018093F10002C01092FC
:10043000F1001092F10045C1913051F4811141C198
:100440004130510509F03DC1809181018D7F0BC084
:10045000933061F4811135C14130510509F031C14A
:10046000809181018260809381012BC1953049F494
:100470008091E80080FFFCCF822F80688093E300AA
:1004800020C1963009F05EC00B8D1C8D22E01092C9
:10049000E90010927D0110927C01F21232C010929C
:1004A0007B0110927A010E942A0199E0BE016F5FE0
:1004B0007F4FDB01E92F1D92EA95E9F79983FA82D4
:1004C00091E09E8390EA98879AEF998720917C012A
:1004D00030917D01275F3F4F3C832B838D831092AA
:1004E000E90010927D0110927C0110937B01009332
:1004F0007A0149E050E080E00E947F050E942A01D5
:10050000E0C010937B0100937A010E94F008DC01A7
:1005100012960D911C9113970115110509F4BBC09A
:10052000D801ED91FC910480F581E02DBE016B5E58
:100530007F4FC8010995009709F0C7C0F8010085F1
:100540001185EACF973009F445C1983021F481E054
:100550008093F100B6C0993009F0B3C0837009F000
:1005600039C1EDE0F1E081E031E096E32081211135
:1005700009C08EE78093EA001092EA008F89809389
:1005800085019FC08093E9003093EB002191209377
:10059000EC009093ED008F5F873041F7EACF8B8DB1
:1005A0009C8D1092E90010927D0110927C01909335
:1005B0007B0180937A01898D811153C08E899D8939
:1005C000913A49F4813209F005C147E050E064E016
:1005D00071E080E0BBC0913209F0FCC0833269F465
:1005E0008F89988DA0E0B0E0809300019093010185
:1005F000A0930201B093030164C0803269F480913A
:10060000E80082FFFCCF67E084E091E00E94A6054D
:100610008BEF8093E80055C0823209F052C08F8979
:1006200080930B01EEEFFFE7859194918B3F9C4DFA
:1006300019F0E0E0F8E002C0EEEFFAE0809104018A
:1006400090910501A0910601B0910701803B944073
:10065000A105B10509F09EC080910B0180FF79C012
:1006600099C00E94F008FC01028113810115110557
:1006700009F4B0C0D801ED91FC910190F081E02D1A
:10068000BE016B5E7F4FC801099581111AC0F80148
:1006900000851185EBCFF1E0FF1609F44EC0F3E0C1
:1006A000FF1298C08F89882309F44AC0823089F4E8
:1006B00040E860E18EE291E00E94AC0B882309F4EF
:1006C00089C08EEF8093E80088C018161906CCF315
:1006D00081C0813029F440E86BE082E291E0ECCF08
:1006E000833009F077C00E94F008DC011296ED908B
:1006F000FC9013978E010F5F1F4F6801E114F10406
:1007000079F0D701ED91FC910680F781E02DB801D9
:10071000C7010995080F111DF701E084F184EECFA0
:10072000D8011C92F60101900020E9F73197BF0132
:100730006C197D0940E0C601BFCF60E171E002C0E5
:100740006CE071E0FB01449150E080E80E947F057D
:10075000B8CFEE3F2AE0F20751F0808191818737D0
:10076000A7E79A0721F09093FF0A8093FE0A87E794
:1007700097E79183808380916000809380019BE064
:1007800088E10FB6F894A895809360000FBE90930F
:10079000600097CF808191818737974709F091CF8B
:1007A000A8958091600088618093600080918001AD
:1007B00080936000EE3FBAE0FB0739F08091FE0ABB
:1007C0009091FF0A918380837CCF1092FF0A109250
:1007D000FE0A77CF81E28093EB006C960FB6F89417
:1007E000DEBF0FBECDBFDF91CF91FF91EF91BF91E3
:1007F000AF919F918F917F916F915F914F913F91B9
:100800002F911F910F91FF90EF90DF90CF900F905D
:100810000FBE0F901F901895CF92DF92EF92FF922C
:100820000F931F93CF93DF936C017A018B01C0E08C
:10083000D0E0CE15DF0581F0D8016D918D01D60194
:10084000ED91FC910190F081E02DC6010995892B75
:1008500011F02196EECF7E01C701DF91CF911F915C
:100860000F91FF90EF90DF90CF900895CF93DF939B
:100870001F92CDB7DEB76983DC01ED91FC91028058
:10088000F381E02D41E050E0BE016F5F7F4F09959D
:100890000F90DF91CF91089583E08093E9008091DC
:1008A000F200882319F08AE38093E8000895FC01A0
:1008B0008485958597FD0BC09FB7F89482E080935F
:1008C000E9008091F2009FBF90E0019608959FB7E4
:1008D000F89482E08093E9008091F2009FBF90E05D
:1008E0000895089580E090E00895BC016E5F7F4F09
:1008F000DC01ED91FC910190F081E02D40E0099543
:1009000091E0811190E0892F08958F929F92AF928C
:10091000BF92CF92DF92EF92FF920F931F93CF93EC
:10092000DF936C017B018A0180910B01882309F41C
:100930005CC080918501882309F457C080917F01B4
:1009400080FF05C08091E00082608093E000E801B4
:10095000B12C8AEFA82E93E0892E2AE3922E2097BD
:1009600011F4BB20D9F10E94DF0881110AC0AA94BA
:10097000AA20D9F161E070E080E090E00E94EF0AE7
:10098000EECF282F30E0C217D3070CF48C2F9FB77F
:10099000F8948092E9002091E80025FF1DC0282FDF
:1009A00030E0C21BD30BF701815020F041914093FE
:1009B000F100FACFE20EF31EBB2019F09092E8008E
:1009C0000AC08091E80085FD07C09092E800BB2432
:1009D000B394209709F0B12C9FBFC1CF5D9884E6F6
:1009E00080937E011016110644F081E090E0F6013C
:1009F0009383828380E090E001C0C801DF91CF91B2
:100A00001F910F91FF90EF90DF90CF90BF90AF902C
:100A10009F908F9008950E94DF0890E008950F93B3
:100A20001F93CF93DF931F92CDB7DEB78C01FC01EC
:100A30008485958597FF0EC0CE0101960E94B1086E
:100A4000019719F4898190E002C08FEF9FEFF801C0
:100A500095878487F801848595850F90DF91CF91E4
:100A60001F910F910895CF93DF931F92CDB7DEB7FB
:100A7000FC018485958597FD05C02FEF3FEF3587F5
:100A800024870BC0CE0101960E94B108019719F48A
:100A9000898190E002C08FEF9FEF0F90DF91CF919F
:100AA000089540917C0150917D0120917A0130910F
:100AB0007B0142175307B4F49091E8009570E1F37D
:100AC0009091E80092FD19C08093F10080917C0123
:100AD00090917D0101968F739927892B19F48EEFE0
:100AE0008093E80080917C0190917D010196909324
:100AF0007D0180937C0181E0089580E00895DF927C
:100B0000EF92FF920F931F93CF93DF93D82E8A011A
:100B10007B01E40EF51EEB01CE15DF0571F0D7FE6B
:100B200003C0FE01849101C088810E945105219675
:100B30008111F2CF8FEF9FEF01C0C801DF91CF91FC
:100B40001F910F91FF90EF90DF900895615030F06A
:100B50002091F100FC0120830196F8CF289884E6CB
:100B600080938401089508958EBD00000DB407FEA2
:100B7000FDCF8EB508958CBD9DBD08951F93CF9375
:100B8000DF93EC01162F83E590E00E94BB0560E047
:100B90008E850E944109812F80680E94B40580E003
:100BA0000E94B405182F61E08E850E944109812FB3
:100BB000DF91CF911F9108950F931F93CF93DF93F0
:100BC000EC01062F142F83E590E00E94BB0560E046
:100BD0008E850E944109802F0E94B405812F0E94BA
:100BE000B40561E08E85DF91CF911F910F910C9438
:100BF00041098F929F92AF92CF92EF92FF920F9303
:100C00001F93CF93DF9300D000D01F92CDB7DEB7F4
:100C10004C0182E08D8340E064E2C4010E94DC0567
:100C200040E066E2C4010E94DC0546E268E4C401DB
:100C30000E94DC0586E28B838D81823040F16CE17D
:100C4000C4010E94BE05482F4F776CE1C4010E9489
:100C5000DC0587E08C83A12CC12CCE0104967C019D
:100C60008E010B5F1F4F9E012F5F3F4F41E0BE0182
:100C70006D5F7F4FC4010E94A20981110BC08D815D
:100C8000823039F481E09C81911104C008C084E075
:100C900001C081E091E0823019F090E001C091E064
:100CA000892F0F900F900F900F900F90DF91CF91A1
:100CB0001F910F91FF90EF90CF90AF909F908F90EA
:100CC0000895CF92DF92EF92FF920F931F93CF93ED
:100CD000DF93EC016B01142F790140E062E00E9488
:100CE000DC0544E06AE0CE010E94DC0540E864E1F6
:100CF000CE010E94DC05A601612FCE010E94700981
:100D000043E062E0CE010E94DC0508E813E16AE0FE
:100D1000CE010E94BE0582FF13C040E062E0CE011A
:100D20000E94DC0564E4CE010E94BE05F7018083C9
:100D300062E4CE010E94BE05F701818380E004C019
:100D40000150110921F783E0DF91CF911F910F919D
:100D5000FF90EF90DF90CF9008952F923F924F92A7
:100D60005F926F927F928F929F92AF92BF92CF923B
:100D7000DF92EF92FF920F931F93CF93DF93CDB744
:100D8000DEB72C970FB6F894DEBF0FBECDBF41354E
:100D900008F00BC1342E3B014C016CE10E94BE05F2
:100DA000482F4F776CE1C4010E94DC052224239474
:100DB00032E0231691F083E02816E1F091E0291249
:100DC000F6C083E989833320D1F081E0F30190817B
:100DD000953008F480E0B12C17C0F5E9F983332091
:100DE00081F081E0F3019081983008F480E043E0E5
:100DF000B42E0AC087E9898336E0B32E04C0B12C33
:100E000002C023E0B22E80E0D32CF8E0BF9ED018C1
:100E10001124D7FCD12C882321F098E89B8333E060
:100E200001C032E021E09D2D977009F420E09D2D56
:100E3000959595959595290F31F4882309F492C0DD
:100E400038E0D30E8FC0811102C094E001C093E05E
:100E5000291708F4922FEB2DF0E03196E60DF71DDF
:100E6000232F4191A1E0B0E0AC0FBD1FA20FB11D37
:100E70004C932F5F422F431B491798F3DECF81110C
:100E8000DEC09FE19D150CF494C080E2D82E90E75F
:100E90009A839B818C8189279D8189279E818927BF
:100EA0008F839E01285F3F4F47E0BE016F5F7F4FFA
:100EB000C4010E9461068111A3C01A86E3E0EB879A
:100EC000CE0107962C0199E09C87CA844C2D42954F
:100ED000407F4C0D6AE1C4010E94DC05A12CCE01CB
:100EE0000A967C018E01055F1F4F92014C85BE0161
:100EF0006F5F7F4FC4010E94A209182F823009F052
:100F0000BECF6CE1C4010E94BE0585FD98C08F7103
:100F100009F480E2282F30E04D2DDD0C550B4217EF
:100F200053070CF044C0D82E85958595859591E0A2
:100F3000980F422F477081E009F480E0890FE1E0CB
:100F4000F0E0EC0FFD1FE80FF11D21503109277073
:100F5000332781E090E001C0880F2A95EAF790815D
:100F6000892B80838FE18D150CF491CF9D2D977087
:100F70009A878D2D8595859585958E5F292FE0E142
:100F80008E9F200D11242A8321E0911101C020E0C1
:100F9000280F2C8744244394512C4C0E5D1E480E80
:100FA000511CF9E0F81BFB8790CF16E048C015E014
:100FB00046C08B81883809F43FC082E094E0EB2D75
:100FC000F0E03196E60DF71D980FA1E0B0E0AC0F10
:100FD000BD1FA80FB11D2C9121938F5F8913F5CFF1
:100FE0008B85833029F58A85811122C09E012D5F72
:100FF0003F4F41E0B201C4010E946106882311F015
:10100000182F1DC09B81F2018181981313C09C8110
:10101000828198130FC0808182FF02C02394C8CEC2
:10102000F3018387822D880F820D8F5F808307C035
:1010300011E005C017E003C083E093E0C0CF812F2B
:101040002C960FB6F894DEBF0FBECDBFDF91CF91C7
:101050001F910F91FF90EF90DF90CF90BF90AF90D6
:101060009F908F907F906F905F904F903F902F90C8
:1010700008953FB7F8948091EB019091EC01A09115
:10108000ED01B091EE0126B5A89B05C02F3F19F0E8
:101090000196A11DB11D3FBFBA2FA92F982F8827F8
:1010A000820F911DA11DB11DBC01CD0142E0660F53
:1010B000771F881F991F4A95D1F70895009769F007
:1010C000FC0101900020E9F73197AF01481B590B53
:1010D000BC0186E891E00C94850480E090E00895DE
:1010E0008F929F92AF92BF920F931F93CF93DF93F4
:1010F000CDB7DEB7A1970FB6F894DEBF0FBECDBF58
:1011000019A2423008F44AE08E010F5D1F4F842E71
:10111000912CA12CB12CA50194010E94470EE62F21
:10112000B901CA0101501109EA3014F4E05D01C0AF
:10113000E95CD801EC93232B242B252B61F7C80104
:101140000E945E08A1960FB6F894DEBF0FBECDBF19
:10115000DF91CF911F910F91BF90AF909F908F9093
:10116000089520918501211103C08FEF9FEF08950D
:101170005FB7F89422E02093E9002091F20030E07C
:101180001216130614F421E030E0422FFC0184E62D
:10119000415038F02898809384019091F100919308
:1011A000F7CF2115310521F08091F200882319F045
:1011B0005FBFC90108958BE68093E800F9CF2FB790
:1011C000F89483E08093E9009091E800892F807281
:1011D00095FF04C09091F20080E4891B2FBF089511
:1011E0008091F30181110DC082E08093EF0184E0D2
:1011F0008093F0011092F2011092F10181E080934E
:10120000F3018FEE91E0089590E0FC013197EF300B
:10121000F105B0F5EA5AFF4F0C94690E80918000F9
:101220008F7703C0809180008F7D80938000089528
:1012300080918000877FF9CF84B58F7702C084B515
:101240008F7D84BD0895809190008F7707C0809135
:1012500090008F7D03C080919000877F80939000E5
:1012600008958091C0008F7703C08091C0008F7D6A
:101270008093C00008958091C200877F8093C20050
:1012800008951F93CF93DF93282F30E0F901E552A3
:10129000FE4F8491F901E454FE4FD491F901E356D5
:1012A000FE4FC491CC23C1F0162F81110E94040976
:1012B000EC2FF0E0EE0FFF1FE157FE4FA591B49128
:1012C0009FB7F894111104C08C91D095D82302C017
:1012D000EC91DE2BDC939FBFDF91CF911F9108959E
:1012E000DF92EF92FF920F931F93CF93DF938C01C6
:1012F000F62ED42EE52E83E590E00E94BB0560E03B
:10130000F80186850E94410982E10E94B405CD2D35
:10131000DE2DCE018F0D911D7C01EC16FD0621F016
:1013200089910E94B405F9CF61E0F80186850E9499
:101330004109DF91CF911F910F91FF90EF90DF90C6
:101340000C94B3054F925F926F927F928F929F920F
:10135000AF92BF92CF92DF92EF92FF920F931F93C3
:10136000CF93DF9300D0CDB7DEB74C012B01D42E45
:101370003901E114F10419F0F701408101C040E0A6
:10138000B42EF0E1CF9EB00C112440E062E0C40125
:101390000E94DC054FE768E0C4010E94DC0540E8DC
:1013A00064E1C4010E94DC05A2016D2DC4010E940C
:1013B00070094B2D6AE1C4010E94DC054CE062E03B
:1013C000C4010E94DC056AE1C4010E94BE05482FE9
:1013D00040686AE1C4010E94DC0580ED482E87E088
:1013E000582E68E0C4010E94BE05982F907341F406
:1013F00080FD04C081E0481A510899F783E0A0C03D
:101400006CE0C4010E94BE05D82E837109F095C01E
:101410006114710409F45AC00115110509F456C08C
:1014200064E1C4010E94BE05B82EF80180818B15CD
:1014300008F47DC0B082BB20F1F183E590E00E940A
:10144000BB0560E0F40186850E944109BA9482E9F7
:101450000E94B405CC20A9F08FEF90E02C0101C0D0
:10146000440CCA94EAF782E90E94B405242D209521
:10147000F301908192238421892B8083CC24C3940F
:1014800001C0C12C4C2C512C460C571CCB1438F4E9
:1014900082E90E94B405F2018083C394F3CF80E017
:1014A0000E94B405F201808361E0F40186850E9408
:1014B00041090E94B30568E1C4010E94BE0587701E
:1014C000E114F10421F0F701808301C080E0D3FC36
:1014D00030C06114710479F10115110561F1AA2080
:1014E00051F1F8014081413021F4843041F58FEF12
:1014F00027C0423020F1811122C042509E012F5F4F
:101500003F4FB301C4010E946106811119C0F80167
:101510008081680E711CF301329790818981981344
:101520000EC0319690818A81981309C004C084E06E
:1015300007C082E005C080E003C081E001C087E011
:101540000F900F90DF91CF911F910F91FF90EF902F
:10155000DF90CF90BF90AF909F908F907F906F90D3
:101560005F904F900895CF93DF9390E0FC01E45497
:10157000FE4F2491FC01E356FE4F8491882361F1D4
:1015800090E0880F991FFC01EF57FE4FC591D49151
:10159000FC01E157FE4FA591B491611109C09FB7BD
:1015A000F8948881209582238883EC912E230BC0A8
:1015B000623061F49FB7F8948881322F309583238D
:1015C0008883EC912E2B2C939FBF06C08FB7F89485
:1015D000E8812E2B28838FBFDF91CF9108958F92C2
:1015E0009F92AF92BF92CF92DF92EF92FF926B01E8
:1015F0007C010E9439084B015C01C114D104E10453
:10160000F104F1F00E943908DC01CB018819990935
:10161000AA09BB09883E9340A105B10570F321E0FA
:10162000C21AD108E108F10888EE880E83E0981EFE
:10163000A11CB11CC114D104E104F10419F7DDCFE0
:10164000FF90EF90DF90CF90BF90AF909F908F90E2
:1016500008951F920F920FB60F9211242F933F936C
:101660008F939F93AF93BF938091E7019091E8018F
:10167000A091E901B091EA013091E60123E0230F46
:101680002D3720F40196A11DB11D05C026E8230FBA
:101690000296A11DB11D2093E6018093E70190936E
:1016A000E801A093E901B093EA018091EB019091E8
:1016B000EC01A091ED01B091EE010196A11DB11DCB
:1016C0008093EB019093EC01A093ED01B093EE01B8
:1016D000BF91AF919F918F913F912F910F900FBE2E
:1016E0000F901F901895549A569A579A249A259AB3
:1016F0000E94970B089529E236E940E80E94810B89
:1017000008954A95F1F73A95E1F72A95D1F70895AA
:1017100000002AE731EC42E80E948F0B08954A95B9
:10172000F1F73A95E1F72A95D1F7000008955C9812
:101730005F9808955C9A5F9808955C985F9A089501
:101740002D9A08952D9808952C9A08952C9808950F
:101750005E9A08955E980895DF92EF92FF920F933C
:101760001F93CF93DF93D82EF92EE42E062F10E08F
:10177000C8010196880F0E94510583E00E9451051F
:10178000CD2DDF2D0C0F1D1FC017D10789F0E7FEEF
:1017900003C0FE01849101C088810E945105F82E8A
:1017A00080E00E9451058F2121968111EDCF01C06B
:1017B00081E0DF91CF911F910F91FF90EF90DF902B
:1017C0000895789484B5826084BD84B5816084BDB9
:1017D00085B5826085BD85B5816085BD80916E00CF
:1017E000816080936E001092810080918100826000
:1017F000809381008091810081608093810080913D
:10180000800081608093800080919100826080934D
:10181000910080919100816080939100809190006F
:101820008160809390008091C10084608093C100AA
:101830008091C10082608093C1008091C10081606D
:101840008093C1008091C30081608093C300809128
:10185000C00082608093C0008091C200816080934C
:10186000C20080917A00846080937A0080917A002F
:10187000826080937A0080917A00816080937A0000
:1018800080917A00806880937A001092850110928E
:10189000810110927F018091D70081608093D700F1
:1018A00080EA8093D80089B5806189BD89B582605E
:1018B00089BD09B400FEFDCF61E070E080E090E0FA
:1018C0000E94EF0A8091D8008F7C80618093D800BD
:1018D0008091E000807F8093E0008091E1008E7E27
:1018E0008093E1008DE08093E200559A209A0E9457
:1018F000730B8FEF9FEF9093930180939201C091B0
:101900000B016AE070E080E090E00E94EF0ACC23D7
:10191000B1F3CFB7F89480918201811127C0EEEA2C
:10192000F1E08491EDECF1E09491E82FF0E0EE0F1E
:10193000FF1FEF57FE4FA591B491EC91E92321F4DD
:1019400061E081E10E94410961E081E10E94B30A06
:101950008CB580618CBD8CB580648CBD61E08FE0FE
:101960000E94B30A61E080E10E94B30A8091820183
:101970008F5F80938201CFBF61E08091E4010E947C
:10198000B30A61E08091E4010E9441098091E50180
:101990008F3F41F44FE062E086ED91E00E94DC056C
:1019A000C3E025C060E00E94B30A2091E50130E069
:1019B000F901E552FE4F8491F901E454FE4FD491B0
:1019C000F901E356FE4FC491CC23F9F081110E9436
:1019D0000409EC2FF0E0EE0FFF1FE15CFE4FA59134
:1019E000B491EC91ED2389F0D5CFC15039F162E388
:1019F00070E080E090E00E94EF0A62E086ED91E006
:101A00000E94BE0584FF1AC0F0CF61E08091E5011D
:101A10000E94B30A60E08091E5010E94410983E0E1
:101A200090E00197F1F761E08091E5010E944109A2
:101A300062E370E080E090E00E94EF0A40E064E240
:101A400086ED91E00E94DC0540E066E286ED91E0E3
:101A50000E94DC0546E268E486ED91E00E94DC0528
:101A600040E864E586ED91E00E94DC0549EA66E520
:101A700086ED91E00E94DC0543E068E586ED91E0AB
:101A80000E94DC0548EE6AE586ED91E00E94DC05E7
:101A900040E46AE286ED91E00E94DC054DE362E2FB
:101AA00086ED91E00E94DC0568E286ED91E00E94FF
:101AB000BE05982F9370933039F0482F436068E249
:101AC00086ED91E00E94DC05CDE4D1E0FE01649159
:101AD000611108C08FE291E00E945E08C0E0D0E092
:101AE00011E012C086E891E00E9436042196892B0D
:101AF00069F7F0CF86ED91E00E94750481110BC06B
:101B0000209711F00E94000086ED91E00E94F905F7
:101B10008823B1F3EFCF8091D9018A3309F055C002
:101B20008091DA01883909F050C08091DB0184335B
:101B300009F04BC08091DC018D3209F046C082E390
:101B400091E00E945E088FE291E00E945E08809121
:101B500083018823E9F00E949D0B0E94A40B0E9440
:101B6000A80B0E947B0B0E94A60B0E94AA0B0E944E
:101B70007B0B0E94A40B0E94A80B0E947B0B0E946F
:101B8000A40B0E94A80B0E94970B10938301B8CF5F
:101B90000E949A0B0E94A40B0E94A80B0E947B0B30
:101BA0000E94A60B0E94AA0B0E947B0B0E94A40B12
:101BB0000E94A80B0E947B0B0E94A40B0E94A80B02
:101BC0000E94970B109283019BCF83E591E00E94C6
:101BD0005E086091D90170E080E090E040E10E94F1
:101BE000700886E691E00E945E086091DA0170E07C
:101BF00080E090E040E10E94700886E691E00E945B
:101C00005E086091DB0170E080E090E040E10E94BE
:101C1000700886E691E00E945E086091DC0170E049
:101C200080E090E040E10E94700888E691E00E9428
:101C30005E088FE291E00E945E080E94A00B0E9465
:101C4000A80B0E94880B0E94A20B0E94AA0B58CFDF
:101C5000E6E8F1E01382128288EE93E0A0E0B0E0C3
:101C600084839583A683B78387E191E09183808302
:101C70008FEF9FEF95878487E6EDF1E089E291E0B1
:101C8000918380838AE0868785E087870895A1E233
:101C90001A2EAA1BBB1BFD010DC0AA1FBB1FEE1FE6
:101CA000FF1FA217B307E407F50720F0A21BB30B31
:101CB000E40BF50B661F771F881F991F1A9469F7AD
:101CC00060957095809590959B01AC01BD01CF0109
:101CD0000895EE0FFF1F0590F491E02D099481E027
:0C1CE00090E0F8940C94740EF894FFCF80
:101CEC00FFFFFFFF00E100000000000000C1808149
:101CFC0000000000000000360485040B054C04575E
:101D0C000433050F0500000000AD06F90575040D40
:101D1C000A00436172642033412D39382D33342D40
:101D2C0032442C20616363657373206772616E7437
:101D3C00656400556E6B6E6F7765642063617264C9
:101D4C0020284E523A002D00292C206163636573C4
:0A1D5C00732064656E696564000081
:00000001FF
